S0260000646966666572656E7469616C5F64726976655F76657273696F6E20312E302E7372656384
S11300000C946B000C9466060C9489060C9488007E
S11300100C9488000C9488000C9488000C9488003C
S11300200C9488000C9488000C9488000C94D105DE
S11300300C9488000C9488000C9488000C9488001C
S11300400C9488000C9488000C9488000C9488000C
S11300500C948800084AD73B3BCE016E84BCBFFD9C
S1130060C12F3D6C74319ABD56833DDA3D00C77F84
S113007011BED9E4BB4C3E916BAAAABE000000801D
S11300803F05A84CCDB2D44EB93836A9020C50B9AC
S1130090918688083CA6AAAA2ABE000000803F02D6
S11300A08988083EABAAAAAABE000000803F076365
S11300B04236B79BD8A71A39685618AEBAAB558CD6
S11300C01D3CB7CC5763BD6DEDFD753EF61772311F
S11300D0BF000000803F11241FBECFE5D8E0DEBF83
S11300E0CDBF10E0A0E6B0E0E0E2F8E102C0059088
S11300F00D92AC36B107D9F721E0ACE6B0E001C00F
S11301001D92AE32B207E1F70E94BC050C940E0CAE
S11301100C94000016BE94EA96BF06B607FEFDCF07
S113012091B1987F983079F483B984E886BF06B694
S113013007FEFDCF91B1987F983139F081E090347A
S113014029F480E0089581E0089580E0089583B95A
S113015084E886BF06B607FEFDCF91B1987F81E0A3
S1130160983209F480E0089584EC86BF06B607FE51
S1130170FDCF83B1089584E886BF06B607FEFDCFA0
S113018083B10895CF9380E280B98CE30E948A0002
S113019080E00E94A70080E70E94A700C4E9C6BFD0
S11301A08CE30E948A0081E00E94A70080EA0E94FA
S11301B0A700C6BF8CE30E948A0082E00E94A700C9
S11301C080E00E94A700C6BFCF910895CF92DF922E
S11301D0EF92FF92CF938CE30E948A0083E00E9407
S11301E0A700C4E9C6BF8DE30E948A000E94B40040
S11301F010927200809373000E94B40020917200E8
S113020030917300282B30937300209372000E9466
S1130210B40010926E0080936F000E94B40020918D
S11302206E0030916F00282B30936F0020936E0086
S11302300E94B40010927000809371000E94BB0071
S11302402091700030917100282B3093710020931D
S11302507000C6BF6091720070917300072E000C8D
S1130260880B990B0E94FF086B017C018091700040
S113027090917100BC01990F880B990B0E94FF08A3
S1130280A70196010E94EC0720E030E044E353E428
S11302900E94220A2BED3FE049E450E40E945508F5
S11302A020E030E044E353E40E946D070E94CE084E
S11302B070936D0060936C00CB01CF91FF90EF9031
S11302C0DF90CF9008952F923F924F925F926F925A
S11302D07F928F929F92AF92BF92CF92DF92EF92D2
S11302E0FF920F931F93CF93DF936B017C01EA017D
S11302F0CC0FDD1FCC0FDD1F8E0100581F4FF801FE
S113030080809180A280B380FE01E05AFF4F20815B
S11303103181428153810E94220A2B013C01FE015A
S1130320E856FF4F2081318142815381C501B401D8
S11303300E94220A9B01AC01C301B2010E946D0715
S11303402B013C01CE0184579F4F1C01CC58DF4F39
S1130350288139814A815B81C701B6010E946C07FB
S1130360F10120813181428153810E94220A9B0143
S1130370AC01C301B2010E946D072B013C01A50130
S11303809401C701B6010E946D07F801608371836F
S113039082839383C882D982EA82FB82C301B20139
S11303A0DF91CF911F910F91FF90EF90DF90CF904D
S11303B0BF90AF909F908F907F906F905F904F9081
S11303C03F902F9008958F929F92AF92BF92CF92B9
S11303D0DF92EF92FF9229EF3FE049E450E40E945C
S11303E0220A20E030E044E353E40E9455086B0104
S11303F07C010E9450084B015C01C701B6010E94B8
S11304008F0AA50194010E94EC0720E030E044E348
S113041053E40E94220A29EF3FE049E450E40E9499
S11304205508FF90EF90DF90CF90BF90AF909F90D2
S11304308F90089568E270E00E94E60B072E000C8E
S1130440880B990B0E94FF080E94E10A08954F92BD
S11304505F926F927F928F929F92AF92BF92CF9250
S1130460DF92EF92FF920F931F93CF93DF93CDB759
S1130470DEB7A6970FB6F894DEBF0FBECDBF0987CF
S11304801A872B873C874D875E876F87788B898B8C
S11304909A8BC984DA84EB84FC844D845E846F84F3
S11304A0788889AC9AACABACBCAC21968CAD9DADD4
S11304B0AEADBFAD21978F8F98A3A9A3BAA3A7010F
S11304C09601C501B4010E946C076B8B7C8B8D8BEC
S11304D09E8BA30192016F8D78A189A19AA10E949C
S11304E06C076F8B788F898F9A8F2B893C894D8904
S11304F05E89CA01B9010E94220A6B8F7C8F8D8F9D
S11305009E8F2F89388D498D5A8DCA01B9010E9459
S1130510220A6BA37CA38DA39EA32BA13CA14DA176
S11305205EA16B8D7C8D8D8D9E8D0E946D070E94CA
S11305309D0A0E94C7086B8F7C8F8D8F9E8FA501AB
S11305409401C701B6010E946C0720E030E0A901C4
S11305500E944B0881110DC0A30192016F8D78A1F7
S113056089A19AA10E94150A1816CCF106EA1FEF78
S11305703BC02F8D38A149A15AA1C301B2010E94E9
S11305806C0720E030E0A9010E944B0881110BC0E8
S1130590A7019601C501B4010E94150A181614F1A9
S11305A004EB10E021C02B893C894D895E896F8959
S11305B0788D898D9A8D0E9455080E941C0820E030
S11305C030E044E353E40E94220A29EF3FE049E487
S11305D050E40E9455080E94C7088B0105C00AE533
S11305E010E002C000E010E08B8D9C8D0E941A0286
S11305F04B015C0189899A89D801A81BB90BBD01FB
S1130600BB0F880B990B0E94FF080E94E30142E094
S113061050E00E946301162FE72EF82E092F20E0E8
S113062030E048E453E4C501B4010E94220A262FB5
S1130630462F572F682F792F49835A836B837C83E6
S1130640412F5E2D6F2D702F4D835E836F837887CE
S11306503A814B815C81612F7E818F819885A6963A
S11306600FB6F894DEBF0FBECDBFDF91CF911F91BF
S11306700F91FF90EF90DF90CF90BF90AF909F903D
S11306808F907F906F905F904F9008954F925F92FC
S11306906F927F928F929F92AF92BF92CF92DF928E
S11306A0EF92FF92CF93DF93CDB7DEB728970FB6C3
S11306B0F894DEBF0FBECDBF29833A834B835C839E
S11306C06D837E838F83988769817A818B819C81F6
S11306D09B01AC010E946D074B015C0126E636E6E6
S11306E04EEB51E46D817E818F8198850E94220AB0
S11306F02B013C019B01AC01C501B4010E946C07B4
S113070020E030E040E251E40E94550823E333E363
S11307104BEF51E40E94550820E030E040E752E4FA
S11307200E94220A0E94C7086B01A3019201C5011D
S1130730B4010E946D0720E030E040E251E40E94E1
S1130740550823E333E34BEF51E40E94550820E0BE
S113075030E040E752E40E94220A0E94C7087B016D
S1130760C701B60128960FB6F894DEBF0FBECDBF01
S1130770DF91CF91FF90EF90DF90CF90BF90AF903B
S11307809F908F907F906F905F904F900895CF923D
S1130790DF92EF92FF921F93CF93DF93EAEAF0E0A8
S11307A080819181A281B3816C0184819581A6812C
S11307B0B7817C0110821182128213821482158205
S11307C0168217821CE31C9DC0011D9D900D1124EF
S11307D0C0EDD2E0BE010E94E60B072E000C880B90
S11307E0990B0E94FF0825E831EB45E05DE30E9488
S11307F0550840E050E00E94DB061E9DC0011F9D8D
S1130800900D1124BE010E94E60B072E000C880BEC
S1130810990B0E94FF0825E831EB45E05DE30E9457
S1130820550841E050E00E94DB0680E090E00E9421
S113083044070E94C708CAECD0E07983688381E04A
S113084090E00E9444070E94C7087B836A83DF917B
S1130850CF911F91FF90EF90DF90CF9008958F92EA
S11308609F92AF92BF92CF92DF92EF92FF92CF937B
S1130870DF93C090A400D090A500E090A600F09073
S1130880A7000E94E600BC0180E090E00E94FD0801
S11308909B01AC01C701B6010E946C070E94E301F1
S11308A00E94C708C0ECD0E079876887EAECF0E0E2
S11308B060817181E280F380072E000C880B990B14
S11308C00E94FF0825E831EB45E05DE30E94220A1F
S11308D020E030E040E752E40E94550823E333E38C
S11308E04BEF51E40E94220A4B015C01B701FF0C5B
S11308F0880B990B0E94FF0825E831EB45E05DE386
S11309000E94220A20E030E040E752E40E945508A9
S113091023E333E34BEF51E40E94220A9B01AC0131
S1130920C501B4010E946D0720E030E040E05FE3C0
S11309300E94220A6B017C0168857985072E000CD0
S1130940880B990B0E94FF0829EF3FE049E450E42B
S11309500E94220A20E030E044E353E40E94550858
S11309600E94500888809980AA80BB80A7019601C4
S11309700E94220A9B01AC01C501B4010E946D07CB
S1130980688379838A839B8388859985BC01990FC1
S1130990880B990B0E94FF0829EF3FE049E450E4DB
S11309A00E94220A20E030E044E353E40E94550808
S11309B00E948F0A8C809D80AE80BF80A701960123
S11309C00E94220A9B01AC01C501B4010E946D077B
S11309D06C837D838E839F83DF91CF91FF90EF9013
S11309E0DF90CF90BF90AF909F908F9008954F92DB
S11309F05F926F927F928F929F92AF92BF92CF92AB
S1130A00DF92EF92FF920F931F93CF93DF936B01CB
S1130A107C0129013A01CAB5DBB508B519B5B9019C
S1130A206C197D09072E000C880B990B0E94FF0896
S1130A3040E050E00E9463014B015C01BE01DD0F08
S1130A40880B990B0E94FF08A50194010E946D0771
S1130A500E94C7084B015C01B3016E197F09072E80
S1130A60000C880B990B0E94FF0841E050E00E94A3
S1130A7063016B017C01B801110F880B990B0E9473
S1130A80FF08A70196010E946D070E94C7089920DC
S1130A9014F4812C912C772314F460E070E0C401E9
S1130AA0811424E0920614F08FEF93E09BBD8ABD7D
S1130AB0611584E0780714F06FEF73E079BD68BDC9
S1130AC0DF91CF911F910F91FF90EF90DF90CF9026
S1130AD0BF90AF909F908F907F906F905F904F905A
S1130AE008952FEF80E792E0215080409040E1F795
S1130AF000C0000081B3806381BB85B7856085BF7A
S1130B008BB7806C8BBF8EB589608EBD8FB5836AC1
S1130B108FBD83B7856083BF89B7816089BF0E9419
S1130B20C2008CE090E00E94650778940E94E60081
S1130B30BC0180E090E00E94FD086093A4007093E3
S1130B40A5008093A6009093A70060E070E08AE07F
S1130B5090E00E94AC0661E070E08AE090E00E94C0
S1130B60AC06E0ECF0E0108211821282138214824F
S1130B7015821682178208950E947105E6EBF0E053
S1130B8080E090E0AAEFB3E480839183A283B383EF
S1130B9080E090E0AAE7B3E484839583A683B783D7
S1130BA0FFCF1F920F920FB60F9211240F931F9332
S1130BB02F933F934F935F936F937F938F939F9361
S1130BC0AF93BF93EF93FF93CF93DF93CDB7DEB78C
S1130BD02897DEBFCDBF8091A8009091A90001960F
S1130BE09093A9008093A8000E94C7030E942F0439
S1130BF02091B2003091B3004091B4005091B500FF
S1130C006091CA007091CB008091CC009091CD008E
S1130C100E94F7048091A8009091A9000A97D9F541
S1130C208DB79EB70A970FB6F8949EBF0FBE8DBFBF
S1130C30ADB7BEB711968AE0E6EBF0E001900D92F5
S1130C408A95E1F70091C0001091C1002091C20083
S1130C503091C3004091C4005091C5006091C6001A
S1130C607091C7008091C8009091C9000E9427022A
S1130C700E9446036093B2007093B3008093B40063
S1130C809093B5001092A9001092A8000FB6F894A2
S1130C90DEBF0FBECDBF28960FB6F894DEBF0FBEE1
S1130CA0CDBFDF91CF91FF91EF91BF91AF919F9114
S1130CB08F917F916F915F914F913F912F911F91F0
S1130CC00F910F900FBE0F901F9018951F920F92C7
S1130CD00FB60F9211248F939F93AF93BF93EF930B
S1130CE0FF93EAEAF0E080819181A281B3810196C9
S1130CF0A11DB11D80839183A283B383FF91EF91E2
S1130D00BF91AF919F918F910F900FBE0F901F9045
S1130D1018951F920F920FB60F9211248F939F93E1
S1130D20AF93BF93EF93FF93EAEAF0E08481958158
S1130D30A681B7810196A11DB11D84839583A683E5
S1130D40B783FF91EF91BF91AF919F918F910F90D6
S1130D500FBE0F901F9018959C0121503109121657
S1130D601306A4F4FB01EE0FFF1FEE0FFF1FE25367
S1130D70FF4FA90120E030E0108211821282138219
S1130D802F5F3F4F389624173507B1F7660F771F4B
S1130D90FB01EE5DFE4F91838083FB01E25EFE4F1B
S1130DA01182108210922E0110922F0110923001A4
S1130DB01092310108954F925F926F927F928F92B9
S1130DC09F92AF92BF92CF92DF92EF92FF920F93D6
S1130DD01F93CF93DF932B013C014A01880C991C8C
S1130DE09401225E3E4F5901F90100811181CA012B
S1130DF0880F991F880F991F9C012A5D3E4F690136
S1130E00E801CC0FDD1FC40FD51FCC0FDD1FCC0FA5
S1130E10DD1FC253DF4F288139814A815B81F6018E
S1130E2060817181828193810E946C07488259821A
S1130E306A827B82A30192010E946D07F60160839E
S1130E407183828393830F5F1F4FF50111830083A6
S1130E50F401EE5DFE4F808191810817190719F4A2
S1130E60F50111821082DF91CF911F910F91FF90B4
S1130E70EF90DF90CF90BF90AF909F908F907F9036
S1130E806F905F904F900895CF93DF93EC01CC0F58
S1130E90DD1FCC0FDD1FCA5DDE4F880F991FFC01DB
S1130EA0EE5DFE4F60817181072E000C880B990B5B
S1130EB00E94FF089B01AC01688179818A819B8132
S1130EC00E945508DF91CF91089590BD89B988E1BA
S1130ED08AB98EE880BD08955058BB27AA270E947E
S1130EE084070C94C7090E948E0938F00E94950962
S1130EF020F039F49F3F19F426F40C9464090EF49D
S1130F00E095E7FB0C945E09E92F0E94EC0958F385
S1130F10BA17620773078407950720F079F4A6F5DA
S1130F200C940E0A0EF4E0950B2EBA2FA02D0B0193
S1130F30B90190010C01CA01A0011124FF27591B1A
S1130F4099F0593F50F4503E68F11A16F040A22F20
S1130F50232F342F4427585FF3CF46953795279591
S1130F60A795F0405395C9F77EF41F16BA0B620B90
S1130F70730B840BBAF09150A1F0FF0FBB1F661FD7
S1130F80771F881FC2F70EC0BA0F621F731F841F1A
S1130F9048F4879577956795B795F7959E3F08F040
S1130FA0B0CF9395880F08F09927EE0F9795879502
S1130FB008950E948E0960F080E891E009F49EEFA4
S1130FC00E94950928F040E851E071F45EEF0CC0EE
S1130FD00C9464090C940E0AE92FE0780E94EC0941
S1130FE040F3092E052AB1F3261737074807590796
S1130FF038F00E2E07F8E02569F0E025E0640AC019
S1131000EF6307F8009407FADB01B9019D01DC01E5
S1131010CA01AD01EF930E946C080E94C7090E94A7
S11310201C085F91552339F02BED3FE049E450FD56
S113103049EC0C946D070895DF93DD27B92FBF7732
S113104040E85FE31616170648075B0718F4D92F24
S11310500E941A0A9F938F937F936F930E94DD0AD5
S1131060E4E5F0E00E9467090E94C7092F913F91CF
S11310704F915F910E94350ADD2351F09058A2EA06
S11310802AED3FE049EC5FE3D0785D270E948407B6
S1131090DF910C94C7090E943A0908F481E008958D
S11310A00E949E09E3950C94D8090E9469080C9447
S11310B0C7090E94950958F00E948E0940F029F44E
S11310C05F3F29F00C945E0951110C940F0A0C94A3
S11310D064090E94EC0968F39923B1F3552391F351
S11310E0951B550BBB27AA2762177307840738F093
S11310F09F5F5F4F220F331F441FAA1FA9F335D0F0
S11311000E2E3AF0E0E832D091505040E695001CA3
S1131110CAF72BD0FE2F29D0660F771F881FBB1F5D
S1131120261737074807AB07B0E809F0BB0B802D3B
S1131130BF01FF2793585F4F3AF09E3F510578F067
S11311400C945E090C940F0A5F3FE4F3983ED4F3C9
S1131150869577956795B795F7959F5FC9F7880F3B
S1131160911D9695879597F90895E1E0660F771F8D
S1131170881FBB1F621773078407BA0720F0621B1E
S1131180730B840BBA0BEE1F88F7E09508950E9449
S1131190CE086894B1110C940F0A08950E94F409C2
S11311A088F09F5798F0B92F9927B751B0F0E1F024
S11311B0660F771F881F991F1AF0BA95C9F714C0D4
S11311C0B13091F00E940E0AB1E008950C940E0A19
S11311D0672F782F8827B85F39F0B93FCCF386950D
S11311E077956795B395D9F73EF49095809570956A
S11311F061957F4F8F4F9F4F0895E89409C097FBE7
S11312003EF490958095709561957F4F8F4F9F4FD9
S11312109923A9F0F92F96E9BB279395F69587951D
S113122077956795B795F111F8CFFAF4BB0F11F4E0
S113123060FF1BC06F5F7F4F8F4F9F4F16C0882387
S113124011F096E911C0772321F09EE8872F762FBD
S113125005C0662371F096E8862F70E060E02AF0FE
S11312609A95660F771F881FDAF7880F96958795EA
S113127097F90895990F0008550FAA0BE0E8FEEFBF
S113128016161706E807F907C0F012161306E40746
S1131290F50798F0621B730B840B950B39F40A263F
S11312A061F0232B242B252B21F408950A2609F41D
S11312B0A140A6958FEF811D811D089597F99F6721
S11312C080E870E060E008959FEF80EC0895DF937C
S11312D0CF931F930F93FF92EF92DF927B018C01C8
S11312E0689406C0DA2EEF010E94350AFE01E894E4
S11312F0A5912591359145915591A6F3EF010E9451
S11313008407FE019701A801DA9469F7DF90EF9052
S1131310FF900F911F91CF91DF91089500240A94BB
S11313201616170618060906089500240A941216BC
S113133013061406050608950C9464090E94F40922
S1131340D8F3E894E0E0BB279F57F0F02AED3FE0A4
S113135049EC06C0EE0FBB0F661F771F881F28F0ED
S1131360B23A62077307840728F0B25A620B730B10
S1131370840BE3959A9572F7803830F49A95BB0FF5
S1131380661F771F881FD2F790480C94510B092EC3
S11313900394000C11F4882352F0BB0F40F4BF2BCC
S11313A011F460FF04C06F5F7F4F8F4F9F4F08950C
S11313B0EF93E0FF07C0A2EA2AED3FE049EC5FEBC0
S11313C00E9484070E94C7090F90039401FC90585F
S11313D0E1E8F0E00C94640B57FD9058440F551F5E
S11313E059F05F3F71F04795880F97FB991F61F0A3
S11313F09F3F79F087950895121613061406551F1A
S1131400F2CF4695F1DF08C0161617061806991F85
S1131410F1CF86957105610508940895E894BB277A
S113142066277727CB0197F908950E943A0908F4B3
S11314308FEF08959B01AC0160E070E080E89FE3CA
S11314400C9455080E94350A0C94C7090E948E0911
S113145038F00E94950920F0952311F00C945E0950
S11314600C94640911240C940F0A0E94EC0970F383
S1131470959FC1F3950F50E0551F629FF001729F35
S1131480BB27F00DB11D639FAA27F00DB11DAA1F44
S1131490649F6627B00DA11D661F829F2227B00D91
S11314A0A11D621F739FB00DA11D621F839FA00D1C
S11314B0611D221F749F3327A00D611D231F849F6C
S11314C0600D211D822F762F6A2F11249F575040C3
S11314D09AF0F1F088234AF0EE0FFF1FBB1F661F3E
S11314E0771F881F91505040A9F79E3F510580F007
S11314F00C945E090C940F0A5F3FE4F3983ED4F316
S1131500869577956795B795F795E7959F5FC1F7AA
S1131510FE2B880F911D9695879597F908959F93B3
S11315200E949E090F9007FCEE5F0C94D80919F4F1
S113153016F40C9464090C944F0B0E94F409B8F34C
S11315409923C9F3B6F39F57550B87FF0E945D0B90
S11315500024A0E640EA900180585695979528F417
S1131560805C660F771F881F20F02617370748070F
S113157030F4621B730B840B202931294A2BA69566
S113158017940794202531254A2758F7660F771FAB
S1131590881F20F026173707480730F4620B730BB7
S11315A0840B200D311D411DA09581F7B901842FB5
S11315B09158880F9695879508959B01AC010C94DA
S11315C0220A9F939F77FEE380319F0728F4EFE977
S11315D0F0E00E94640B25C0906841E050E00E9456
S11315E07C0B0E941D0B9F938F937F936F9320E03E
S11315F030E040E85FE30E946D072F913F914F91E7
S11316005F919F938F937F936F9360E070E080E886
S11316109FE30E946C072F913F914F915F910E942D
S113162055080F9007FC9058089529F416F00C946F
S11316305E090C940E0A0C9464090E94F409A8F340
S11316409638A0F707F80F92E8942BE33AEA48EBB0
S11316505FE70E94380A0F920F920F924DB75EB760
S11316600F920E94B20BEEEAF0E00E9467094F91DC
S11316705F91EF91FF91E595EE1FFF1F49F0FE5733
S1131680E0684427EE0F441FFA95E1F74195550BA6
S11316900E947C0B0F9007FE0C941A0A08959F3F3A
S11316A031F0915020F4879577956795B795880F19
S11316B0911D9695879597F9089591505040660F1E
S11316C0771F881FD2F708959F938F937F936F930B
S11316D0FF93EF939B01AC010E94220AEF91FF91CB
S11316E00E9467092F913F914F915F910C94220AB8
S11316F00C945E090C944F0B0E94F409D8F39923BF
S1131700C9F3940F511DA3F39150504094F059F034
S1131710882332F0660F771F881F91505040C1F71D
S11317209E3F51052CF7880F911D9695879597F943
S113173008955F3FACF0983E9CF0BB278695779563
S11317406795B79508F4B1609395C1F7BB0F58F747
S113175011F460FFE8CF6F5F7F4F8F4F9F4FE3CF50
S11317600C940F0AFA01DC01AA0FBB1F9B01AC0108
S1131770BF5728F4222733274427507820C0B75175
S113178090F4AB2F0024469537952795011CA3951B
S1131790D2F3002071F0220F331F441FB395DAF304
S11317A00ED00C946C0761307105A0E88A07B94625
S11317B030F49B01AC016627772788279078309610
S11317C021F02083318342835383089597FB072EAE
S11317D016F4009407D077FD09D00E94FA0B07FC99
S11317E005D03EF4909581959F4F0895709561952D
S11317F07F4F0895AA1BBB1B51E107C0AA1FBB1F43
S1131800A617B70710F0A61BB70B881F991F5A9588
S1131810A9F780959095BC01CD010895F894FFCF68
S10F1820CDCCCC3DCDCCCC3DCDCCCC3DD2
S9030000FC
